:020000040800F2
:10000000C02B0020C5010008C10A0008B50900087E
:10001000BD0A0008D10800085D13000800000000B8
:10002000000000000000000000000000ED0F0008CC
:10003000D508000800000000E50F0008E9010008ED
:10004000DF010008DF010008DF010008DF01000810
:10005000DF010008DF010008D9080008DF010008FF
:10006000DF010008DF010008DF010008DF010008F0
:10007000DF010008DF010008DF010008DF010008E0
:10008000DF010008DF010008DF010008DF010008D0
:10009000DF010008DF010008DF010008DF010008C0
:1000A000DF010008DF010008DF010008DF010008B0
:1000B000DF010008DF010008DF010008DF010008A0
:1000C000DF010008DF010008DF010008DF01000890
:1000D000DF010008A9120008DF010008DF010008A5
:1000E000DF010008DF010008DF010008DF01000870
:1000F000DF010008DF010008DF010008DF01000860
:10010000DF010008E90F0008DF010008DF01000837
:10011000DF010008DF010008DF010008DF0100083F
:10012000DF010008DF010008DF010008DF0100082F
:10013000DF010008DF010008DF010008DF0100081F
:10014000DF010008DF010008DF010008DF0100080F
:10015000DF010008DF010008DF010008DF010008FF
:10016000DF010008DF010008DF010008DF010008EF
:10017000DF010008DF010008DF01000800000000C7
:10018000DF010008DF010008DF010008DF010008CF
:10019000DF010008DF010008DF01000800000000A7
:1001A000DF010008DF010008DF010008DFF810D0E0
:1001B00000F0BCFA00F094F800480047BD46000883
:1001C000C02B00200648804706480047FEE7FEE7B0
:1001D000FEE7FEE7FEE7FEE7FEE7FEE7FEE7FEE7F7
:1001E00081100008AD01000830B410B50348804705
:1001F00030BCAE4630BC024800470000714C0008DD
:10020000F10F000800BF7047854670472DE9F041A7
:100210000024061B254671F1000605DA012400279B
:10022000D0EB070067EB0101161E73F1000605DA3B
:100230000027D2EB0702012567EB030300F08DF8DE
:1002400086460E4617469C46AC4204D00025D0EBAD
:10025000050E65EB010624B10020D2EB000760EB30
:10026000030C704631463A466346BDE8F08140EAE9
:1002700001039B0703D009E008C9121F08C0042A24
:10028000FAD203E011F8013B00F8013B521EF9D20B
:100290007047D2B201E000F8012B491EFBD2704733
:1002A0000022F6E710B513460A4604461946FFF742
:1002B000F0FF204610BD421C10F8011B0029FBD1A5
:1002C000801A704730B504460020034600E05B1CEE
:1002D000934203D2E05CCD5C401BF8D030BD0000FF
:1002E0007CB507480090074801900546009C04E053
:1002F0002046016808448047241DAC42F8D17CBDEB
:10030000F4A10008F8A1000800F0004230F000401D
:100310000AD0C10D01F56071C0F3160042EA015127
:10032000C20840071143704700200146704730B5AE
:100330000B46014600202022012409E021FA02F5A3
:100340009D4205D303FA02F5491B04FA02F528443D
:10035000151EA2F10102F1DC30BD2DE9F05F05466A
:10036000002092469B4688460646814640241BE074
:10037000284641464746224600F0FFF953465A4672
:10038000C01A914110D311461846224600F0E6F9F2
:100390002D1A67EB01084F4622460120002100F08C
:1003A000DDF917EB00094E41201EA4F10104DFDC4A
:1003B000484631462A464346BDE8F09F2DE9FE4FA8
:1003C000804681EA0300C00F0C46009021F00041F6
:1003D00023F00045B8EB0200A94105D24046214672
:1003E00090461C460B46024623F00040104347D07F
:1003F000270DC7F30A00C3F30A510290401A019077
:1004000040286BDAC3F3130040F4801B0098924637
:1004100020B10023D2EB030A63EB0B0B0198594682
:10042000C0F14002504600F099F906460D4650468C
:100430005946019A00F0B1F910EB0800614100241F
:1004400087EA115284EAE7731A4340D0009A62B3F4
:10045000019A012A4FEA075215DC001B61EB0201E9
:100460004FF0004202EA0752CDE90042001C41F57C
:10047000801132462B4600F0B1F903B0BDE8F08F91
:1004800040462146F9E7001B61EB0201001C41F5E3
:10049000801300185B412018A2F5001747EB0301F9
:1004A00040EAD570B6196D4111E06D084FEA360685
:1004B00045EAC0754FEA0752001B61EB0201001CC0
:1004C00041F5801149084FEA300000195141324688
:1004D0002B4603B0BDE8F04F00F071B9009801223F
:1004E00040000023D0EB020263EBE073009821464A
:1004F0004FEAE074B8EB000061EB0401E9E783F038
:1005000000435BE781F0004158E72DE9FE4F81EAA7
:10051000030404F0004421F0004100944FF0000B6C
:1005200023F0004350EA01045ED052EA03045BD09A
:10053000C3F30A54C1F30A552C44A4F2F3340194D2
:10054000A0FB0254C1F3130141F48011C3F3130360
:1005500043F4801301FB024400FB034E840A970A14
:1005600044EA815447EA8357A4FB076802958D0A41
:1005700005FB07854FEA932C04FB0C542705029DCD
:100580004FEA065847EA1637B5EB08056EEB070C3D
:10059000870E920E47EA811742EA8312A7FB0201F7
:1005A000B6EB0B0164EB00042B0D43EA0C335E1831
:1005B00044EB1C50DA465146E7FB0201C5F3130435
:1005C0004FEA0B3343EA14534FEA0432019C43EAE7
:1005D0000603A4F10C040294009CCDE900B400F0E1
:1005E000FDF803B0BDE8F08F00200146F9E72DE9E2
:1005F000F04D81EA030404F0004B21F0004514465D
:100600004FF0000A23F0004150EA050220D054EADE
:1006100001021DD0C5F30A570246C5F31303C1F307
:100620001300C1F30A5640F4801543F48013A7EB7E
:100630000608101BD64608F2FD3873EB050002D3FE
:1006400008F1010801E092185B41B8F1000F03DAEC
:1006500000200146BDE8F08D00204FF480110646D1
:1006600084460EE0171B73EB050705D3121B63EBE3
:10067000050306434CEA010C49084FEA3000921882
:100680005B4150EA0107EDD152EA030012D082EA41
:10069000040083EA0501084305D0101BAB4106D2D4
:1006A0000122002306E000224FF0004302E06FF039
:1006B000010253101AEB06004CEB085110EB0A0034
:1006C00041EB0B01BDE8F04D00F079B8C1F30A52DF
:1006D000C1F3130140F2FF3341F480119A4202DA70
:1006E00000200146704740F233439A42A2F233425F
:1006F00002DC524200F041B800F030B830B5041EC0
:1007000071F1000404DB4FF00044404264EB01014E
:10071000141E73F1000405DB1C464FF000435242E7
:1007200063EB0403994208BF904230BD1CB50948F1
:100730000090094801900546009C06E0E06840F002
:10074000010394E8070098471034AC42F6D3FFF752
:1007500031FD0000D4A10008F4A10008202A04DB28
:10076000203A00FA02F1002070479140C2F12003C4
:1007700020FA03F3194390407047202A04DB203A03
:1007800021FA02F00021704721FA02F3D040C2F1B1
:1007900020029140084319467047202A06DBCB17F8
:1007A000203A41FA02F043EAE07306E041FA02F32C
:1007B000D040C2F12002914008431946704710B55D
:1007C000141E73F1000408DA401C41F10001921874
:1007D0005B411A4301D120F0010010BD2DE9F04D1D
:1007E00092469B4611B1B1FA81F202E0B0FA80F272
:1007F00020329046FFF7B2FF04460F4640EA0A0057
:1008000041EA0B0153465A46084313D0114653EAB6
:10081000010019D0C8F140025046FFF7AEFF05466F
:100820000E46504659464246FFF798FF084305D00A
:10083000012004E020463946BDE8F08D0020054344
:1008400046EAE0762C4337430A986305E40AA0EBB6
:1008500008000022FD0A44EA47540A3002D500206D
:100860000146E9E7010510196941DDE9084500196C
:100870006941BDE8F04DA2E770B58C1810F8015B36
:1008800015F0070301D110F8013B2A1106D110F829
:10089000012B03E010F8016B01F8016B5B1EF9D12D
:1008A0002B0705D40023521E0DD401F8013BFAE7B3
:1008B00010F8013BCB1A921C03E013F8015B01F81E
:1008C000015B521EF9D5A142D8D3002070BD0000B3
:1008D000FEE70000FEE7000080B5012002F040FFC7
:1008E000002808BF80BD0120BDE8804002F032BF73
:1008F0002DE9F04740F2461541F20008C2F200052A
:100900004AF21810C4F20108288008F5105006F0C9
:1009100079FF28786978C0F34202120342EAC032B4
:10092000C0F3021342EA432200F0800042EA400092
:1009300001F0070240EA421001F008024FF00809F6
:1009400040EA420009EA51024FF0060A10440AEA5E
:10095000111242EAD111084380B207F09FF82878BB
:100960006978C203C0F3420392B2C0F3021542EAAF
:10097000033200F0800042EA452201F0070442EA17
:10098000400001F0080640EA441009EA51070AEA6B
:10099000111C40EA460038434CEAD11140EA0102FA
:1009A00002A14046BDE8F04703F076BF3078253419
:1009B00058000000FEE70000B0B540F20044C4F269
:1009C00002042046012100224FF44073002503F069
:1009D000EFFC2046002102224FF4407303F012FD89
:1009E00020464FF4407103F0DBFC0A2004F0ACF821
:1009F00020464FF4807103F0D1FC052004F0A4F8E8
:100A000020464FF4807103F0CBFC052004F09CF8E5
:100A1000082D05F10105EBD320464FF4807103F05A
:100A2000BFFC20464FF4007103F0B8FC052004F031
:100A30008BF820464FF4007103F0B2FC052004F05F
:100A400083F82046022101224FF4007303F0B0FC2A
:100A50002046012102224FF4007303F0D3FC20460C
:100A6000022101224FF4807303F0A2FC20460121F1
:100A700002224FF4807303F0C5FCA4F5D83420465D
:100A800003F056FD41F68021C0F206012046002207
:100A900003F0E2FC204600210022722303F0A2FDB5
:100AA000204603F075FD20464FF4806103F0CEFC34
:100AB0000A20BDE8B04004F047B80000FEE700009F
:100AC000FEE7000080B58D2000F0C4F8102000F093
:100AD000C1F8AF20BDE8804000F0BCB870B564201C
:100AE00004F032F840F2C805C2F2000540F2E10419
:100AF0002878C2F200040121217000F0ABF82078C0
:100B000088B30126162E0AD0A85D00F0A3F820783D
:100B100001360028F6D1B01E152838BF70BD00245C
:100B200044F0B000C0B200F095F80020002500F0BD
:100B300091F8102000F08EF8002000F06FF9681C8A
:100B400045B2B5F1FF3FF7DCE0B201340328E7D34B
:100B5000B02000F07FF8102000F07CF80020BDE805
:100B6000704000F077B870BD2DE9F04101EBD0186E
:100B70001E4643B2A8F15000C0B2A2F1200723EAFA
:100B8000E37500F067F8102040EA1514204600F0E5
:100B900061F805F00F05284600F05CF8102EF8B259
:100BA00023D149F2A401C0F6000101EB00164FF079
:100BB000FF3700BFF019407800F030F90137072FF8
:100BC000F8D1A8F14F00C0B200F044F8E0B200F054
:100BD00041F8284600F03EF8F41D082514F8010FEE
:100BE00000F01CF9013DF9D111E048F67C6100EB01
:100BF0004000C0F6000101EB40044FF0FF3500BF9C
:100C00006019407800F00AF90135052DF8D1BDE8EA
:100C1000F08100002DE9F04115461278002A08BF46
:100C2000BDE8F08198460E4607460024F8B2F1B2BE
:100C3000D2B24346FFF798FF0837F8B2013478285C
:100C4000E0B288BF02362A5C88BF0027002AEDD1B7
:100C5000BDE8F0812DE9F04140F2E108C2F2000860
:100C600098F80010002900F0CD8045F2004440F2D1
:100C70001871C4F20004C2F2000100220A70487028
:100C8000204640F2016103F09DFC002818BFFFF7E9
:100C900093FE204640F2016103F094FC80B14DF6D2
:100CA000F005CFF6FF752F46013749D2012003F03A
:100CB0004BFF204640F2016103F084FC0028F3D191
:100CC00047F65F162046CFF6FE7603F099FC3546D0
:100CD000013580F0928020464FF4A06103F072FC51
:100CE0000128F5D1002D00F08880204678216FF092
:100CF000010203F06FFC3546013512D2204640F266
:100D0000015103F05FFC012829D0204640F20A512E
:100D100003F058FC0128EFD1204640F20A5103F0BD
:100D20003DFC204603F072FC4DF6F000CFF6FF705C
:100D3000013800BF013060D221688905FAD45CE037
:100D4000FFF73AFE204640F2016103F03BFC002829
:100D5000B6D0013556D2012003F0F6FEF2E7204668
:100D600040F2015103F01AFC354600BF013544D270
:100D7000204640F2075103F025FC0128F6D1E5B3E7
:100D800004F5033540F21873C2F200032846062129
:100D9000002202F049F928460621022202F0A0FAB8
:100DA00020464FF4006103F0EDFB2846062102F0D7
:100DB000ADF83746013727D228460621202202F017
:100DC00013F90128F6D1FFB128460621202202F0AE
:100DD000EFF82846062102F08FF82046002103F0A4
:100DE000D1FB204603F012FC013606D220688005B4
:100DF000FAD4002E18BFBDE8F081FFF7DDFD00201A
:100E000088F80000BDE8F0812846062102F074F859
:100E10002046002103F0B6FBEFE700002DE9F0418A
:100E200040F2E108C2F2000898F80010002900F032
:100E3000CD8045F2004440F2DF01C4F20004C2F26A
:100E4000000140220A704870204640F2016103F020
:100E5000B9FB002818BFFFF7AFFD204640F2016143
:100E600003F0B0FB80B14DF6F005CFF6FF752F46CD
:100E7000013749D2012003F067FE204640F20161AC
:100E800003F0A0FB0028F3D147F65F162046CFF60B
:100E9000FE7603F0B5FB3546013580F092802046A2
:100EA0004FF4A06103F08EFB0128F5D1002D00F076
:100EB0008880204678216FF0010203F08BFB3546D5
:100EC000013512D2204640F2015103F07BFB01288C
:100ED00029D0204640F20A5103F074FB0128EFD1DB
:100EE000204640F20A5103F059FB204603F08EFBE6
:100EF0004DF6F000CFF6FF70013800BF013060D230
:100F000021688905FAD45CE0FFF756FD204640F2DF
:100F1000016103F057FB0028B6D0013556D20120FD
:100F200003F012FEF2E7204640F2015103F036FBD7
:100F3000354600BF013544D2204640F2075103F048
:100F400041FB0128F6D1E5B304F5033540F2DF0398
:100F5000C2F2000328460621002202F065F8284666
:100F60000621022202F0BCF920464FF4006103F092
:100F700009FB2846062101F0C9FF3746013727D271
:100F800028460621202202F02FF80128F6D1FFB1D1
:100F900028460621202202F00BF82846062101F0FF
:100FA000ABFF2046002103F0EDFA204603F02EFBB4
:100FB000013606D220688005FAD4002E18BFBDE89D
:100FC000F081FFF7F9FC002088F80000BDE8F0810F
:100FD0002846062101F090FF2046002103F0D2FAB6
:100FE000EFE70000FEE7000005F014BEFEE700009A
:100FF00001F0F4BB80B543F60400C4F2020041687E
:10100000C1F3810242F20041022AC0F2F40106D08B
:10101000012A1ED147F64001C0F27D1119E0026895
:10102000036802F03F0EC3F3881C03680268C3F331
:101030000143520247F64002C0F27D1258BF0A46F1
:10104000B2FBFEF2022101EB430102FB0CF2B2FB08
:10105000F1F140F20002C2F200021160406804A106
:10106000C0F30310085C116821FA00F0106080BD25
:101070000000000000000000010203040607080948
:1010800082B04EF68851CEF200010A6843F608009D
:1010900042F47002C4F202000A6050F8081C41F0E9
:1010A000010140F8081C00BF50F8081C8907FBD557
:1010B000016801F00C01082966D100210191019A13
:1010C0004F2A05D8019A01320192019A502AF9D388
:1010D00002680092009A22F0F0020092009A42F018
:1010E00080020092009A0260019101994F2905D86F
:1010F00001990131019101995029F9D301680091B9
:10110000009921F0F0010091009941F090010091C7
:101110000099016000210191019A4F2A06D800BF71
:10112000019A01320192019A502AF9D30268009281
:10113000009A22F0F0020092009A42F0A00200927F
:10114000009A0260019101994F2905D80199013156
:10115000019101995029F9D301680091009921F07A
:10116000F0010091009941F0B001009100990160F7
:101170000021019101994F2906D800BF0199013141
:10118000019101995029F9D301684FF0000C21F029
:1011900003010160CDF804C0019A12097C2A06D827
:1011A000019A01320192019AB2F5FA6FF8D350F820
:1011B000082C4FF6FF73CFF6F6631A4040F8082C60
:1011C00050F8082C22F4802240F8082CC0F800C007
:1011D000026843F21002C2F2004240F8042CC0F848
:1011E00004C050F8082C42F4803240F8082C4FF626
:1011F000FE7200BF50F8081C013A4CF1000389034D
:1012000002D4002BF6D100BF50F8081C8903FBD58F
:10121000826B47F2000142F08052C4F20001826307
:101220000A6842F440420A6002680260026842F4BE
:1012300000420260026842F4A052026047F61902BE
:10124000C0F6402240F8042C50F8082C42F080727E
:1012500040F8082C50F8082C9201FBD50A6842F49B
:1012600080320A604A68D203FCD50A6842F4003230
:101270000A6000BF4A689203FCD501680191019998
:1012800021F003010191019941F0020101910199BD
:10129000016000BF01680907FCD54FF00060002124
:1012A00002B003F08FBB000070B546F20044C4F2F8
:1012B0000204A4F5AA3540F20431C0F20401284624
:1012C00007F030F9002808BF70BD284607F088F8FD
:1012D0002046052101F010FE2046052102F006F807
:1012E000B0F5007F20D0C0F50075B5F5007F1BD8A4
:1012F00040F2BC76C2F20006B5F5FF7F88BF40F22F
:10130000FF15C5F500717019FEF7CAFF40F6BC1154
:10131000C2F2000130462A46FEF7A9FF40F24C70A7
:10132000C2F200000121017040F6BC10C2F20000C0
:101330004FF40071FEF7B4FF20460521202201F092
:1013400037FE204605214FF4007201F0C9FF204608
:101350000521BDE8704001F0D9BD0000FEE70000A6
:10136000B0B540F24815EFF3108472B6C2F2000532
:101370000120287603F060FC03F03CFC84F3108825
:1013800006F076FF0020C5E90000C5E90200BDE8CF
:10139000B04000F001B8000070470000816841F0E3
:1013A0000801816081680907FCD4816841F004016B
:1013B000816000BF81684907FCD4704780B502296D
:1013C0000AD001291CD1511E102919D24FF4700ED8
:1013D0006FF4700C2C2308E0511E032988BF80BDD8
:1013E0004FF4401E6FF4401C3823195801EA0C01D9
:1013F00019500EEB02511A5801EA0E01114319500F
:1014000080BD000042F20431C4F201010A6822F4F6
:10141000E0220A600A681043086070478268002969
:1014200022F4006218BF02F500628260704700007B
:10143000816821F00101816070470000816821F41A
:101440008071816070470000816841F48071816023
:1014500070470000816841F40071816070470000AE
:101460008168C90718BF7047816841F00101816038
:1014700070470000012907D0022918BF70474FF0BC
:10148000140C6FF4401303E04FF01C0C6FF040534A
:10149000816802FA0CF21940816081681143816011
:1014A00070470000012905D0022918BF70476FF46A
:1014B000702101E06FF0706183681940816081687C
:1014C000114381607047000010B5052904D800F170
:1014D000340C01EB810E10E00B2906D801EB8101E1
:1014E00000F1300CA1F11E0E07E00F2910D801EB1E
:1014F000810100F12C0CA1F13C0EDCF800101F243E
:1015000004FA0EF4A14302FA0EF42143CCF80010C1
:10151000092A03D8103002EB420106E0122A88BFE4
:1015200010BD02EB42010C301E39026807248C40CA
:10153000A24303FA01F11143016010BD012905D056
:10154000022918BF70474FF4800101E04FF080413D
:10155000826811438160704732B1CA0518D44A05C8
:101560001CD4890720D47047CA0503D5426822F4E9
:10157000807242604A0503D5426822F4806242606C
:10158000890758BF7047816821F002018160704768
:10159000426842F4807242604A05E2D5426842F4F1
:1015A000806242608907DED5816841F00201816076
:1015B0007047000042F20431C4F201010A6822F0CF
:1015C0001F020A600A6810430860704740F26C10FE
:1015D000C2F20000008840F2FA11C2F20001088055
:1015E00040F6E441484340F6BC31000BC2F2000132
:1015F0000880704780B582B044F6F15C44F6AD6E69
:1016000040F20400C0F6000CC0F6000EC2F200006A
:10161000072100220023CDE900EC01F06DFE02B0AD
:1016200080BD000070B5EFF3108472B603F03EFB8E
:1016300003F034FB40F24816C2F2000688B103F012
:10164000D9FA03F0F1FAEFF3108272B6D6E9003559
:10165000C0186941013041F10001C6E9000182F37F
:10166000108802F011FEC6E9000103F0BBFA84F312
:10167000108870BD70B58AB040F6024004F024F8BE
:1016800041F2081004F020F840F6164004F01CF86F
:101690004FF44030FFF7B6FE42F20004C4F20104FA
:1016A00004F56840032100220523002602F080FE95
:1016B00004F5A2352846002101F052FC04F14C004B
:1016C00001900120029040F26C10C2F20000CDE9BE
:1016D00003064FF400600590022008904FF400309C
:1016E000099001AA28460021079601F04DFD2846E1
:1016F0000021002201F014FC2846002101F026FC04
:101700002846002101F002FC0020FFF753FF20468D
:1017100002210122FFF720FF20464FF480710122B1
:10172000FFF71AFF20460021FFF778FE204601212F
:101730000222FFF743FE204600210A220123FFF781
:10174000C3FE204601210C220123FFF7BDFE2046E7
:1017500001210022FFF7A6FE204601210022FFF70B
:1017600089FE2046FFF776FE2046FFF76DFE2046F5
:10177000FFF776FE012001F027F82046FFF70EFE66
:1017800020460121FFF7DAFE0AB070BD10B540F621
:10179000014003F099FF40F6044003F095FF4FF439
:1017A000406003F091FF0024C4F2020404F580506D
:1017B0000021012248F6D00302F0FAFD04F5806012
:1017C00000210122012302F0F3FD20460021012225
:1017D0000123BDE8104002F0EBBD000070B584B0FD
:1017E0004FF4406003F070FF41F21D0003F06CFF06
:1017F00041F2040003F068FF47F20044C4F2000421
:1018000004F5C630032100221023002602F0D0FD8B
:10181000204600F06FFF20460021002200F0B0FFBC
:101820002046002100F0A0FF20460021002200F009
:10183000B9FF2046002100F08BFFA4F5C8442046E4
:1018400006F0E0FB6D46284606F0EAFCEF20CDE905
:10185000000663200290204629468DF80C6006F0B1
:1018600081FC2046202106F0D3FC204606F074FCC3
:1018700004B070BD2DE9F04F81B041F21C0003F0BF
:1018800023FF40F2000AC4F2020AAAF5704472B6BD
:1018900020464FF4417106F02DFE252003F032F86A
:1018A0002046002106F00EFE40F6284B45F2D87087
:1018B000C4F2020B0BEB00073846052101F01CFBBC
:1018C000204606F0F9FDAAF5DE3420464FF44171BA
:1018D00006F010FE262003F015F82046002106F041
:1018E000F1FD45F2D8300BEB00052846052101F04B
:1018F00003FB204606F0E0FDAAF5DC3420464FF459
:10190000417106F0F7FD272002F0FCFF2046002180
:1019100006F0D8FD2846012101F0EEFA204606F037
:10192000CBFDAAF56C4420464FF4417106F0E2FD70
:10193000472002F0E7FF2046002106F0C3FD3846AD
:10194000012101F0D9FA204606F0B6FDFFF7BAF8FA
:10195000AAF5D6342046002102F014FE28460621BE
:1019600001F0CAFA204602F007FE40F20048C4F235
:1019700002084046032100224FF4407302F018FD94
:1019800050464FF4004102F00BFD0BF576794846C6
:101990004FF4806102F004FDAAF550463046012163
:1019A00005F01AFF3046002105F016FFAAF54C4459
:1019B0002046012105F010FF2046002105F00CFF14
:1019C0003846022101F098FA3846032101F094FAD2
:1019D0003846042101F090FA304605F0F7FE204623
:1019E00005F0F4FE312002F08DFF05F053FE05F006
:1019F000CBFD05F0BFFC05F041FE3846032101F0A8
:101A00007BFAAAF560442046FFF712FD2046FFF757
:101A100015FD3846002101F06FFAAAF5C6342046BC
:101A2000002100F079FE2046002100F083FE2846C8
:101A3000052101F061FAAAF5F83006F087FB4FF4B2
:101A4000406003F041FE40F6014003F03DFE40F6E9
:101A5000024003F039FE40F6034003F035FE40F645
:101A6000044003F031FE4FF480664FF40060CBF881
:101A70000060CBF800004FF48050CBF800004FF42A
:101A80000050CBF800004FF48040CBF800004FF43A
:101A9000004448460321002248F6D003CBF800401A
:101AA00002F086FC404603210022012302F080FC64
:101AB0005046032100224FF4007302F079FC504697
:101AC000032100224FF4806302F072FCABF128077F
:101AD000384603210022202302F06AFC3846032105
:101AE0000022402302F064FC3846032100224FF418
:101AF000807302F05DFC3846032100224FF400732E
:101B000002F056FC08F58065284603210022402398
:101B100002F04EFC284603210022802302F048FCFC
:101B20004046032100224FF4407302F041FC40463E
:101B300003210022382302F03BFC50460121002201
:101B40004FF4004302F034FC5046002100224FF4D1
:101B5000004302F057FC4FF61840CFF6FF7048F8EC
:101B600000404846032100224FF4E0434FF4004474
:101B700002F01EFC4846012100224FF4806302F06F
:101B800017FC4846002100224FF4806302F03AFC23
:101B90002846032100220523CBF8F0634FF480662A
:101BA00002F006FC504603210022102302F000FC44
:101BB0002846032100224FF4F85302F0F9FB38467F
:101BC00003210022042302F0F3FB504600210122EE
:101BD000012302F0EDFB4FF4406003F075FD41F28C
:101BE0000E1003F071FD504600210122012302F086
:101BF000DFFB0020002106F06DF801200021022209
:101C000001F05AFD012001F0A5FD0620012100226E
:101C100002F08EFE002003F05DF8012003F05AF878
:101C2000FFF700FD4EF21000CEF200000168002226
:101C300021F00201016062B601204FF4402103F05F
:101C400059F8FFF71DFAFFF7D5F906F085F806F009
:101C50000FFB40F6034003F037FD38460121012217
:101C60004FF47C4302F0A4FB3846002102224FF4DB
:101C70007C4302F0C7FB4FF40060CBF80060CBF868
:101C800000004FF48050CBF800004FF40050CBF828
:101C900000004FF48040CBF8000040F60140CBF844
:101CA000004003F011FD40F6044003F00DFD4FF439
:101CB000406003F009FD48460021012248F6D003A8
:101CC00002F076FB404600210122012302F070FB66
:101CD000504600210122012302F06AFB00F0B8F90E
:101CE00000F0D6F8FEF7FAFEFFF7C4FCFFF776FD2A
:101CF00000F008F800F054F801B0BDE8F04F04F02F
:101D000071BD000070B588B040F6014003F0DCFC06
:101D10004FF4406003F0D8FC41F20C1003F0D4FC07
:101D200040F6154003F0D0FC40F20044C4F2020437
:101D300020460521382202F0F9FA2046022100222D
:101D40003823002602F034FB2046002102223823EB
:101D500002F058FBA4F580652846012100224FF4CB
:101D6000004302F025FB2846002102224FF40043E5
:101D700002F048FB4FF482700190032006904FF46C
:101D80000070049010200790A4F5544001A9029619
:101D90000396059605F012FF05F068FD08B070BDCA
:101DA00070B588B040F6044003F08EFC41F20D108F
:101DB00003F08AFC40F6164003F086FC41F2000472
:101DC000C4F20204204605214FF4E04202F0AEFACC
:101DD0002046022100224FF4E043002502F0E8FAF9
:101DE0002046002102224FF4E04302F00BFB204684
:101DF000012100224FF48063012602F0D9FA204627
:101E0000002102224FF4806302F0FCFA4FF482704A
:101E100001904FF40070049010200790A4F55C40EE
:101E200001A9029503950696059505F0C7FEFEF7F4
:101E30005FFD08B070BD0000B0B540F6034003F090
:101E400043FC40F62845C4F20205A5F128042046CB
:101E5000012101224FF47C4302F0AAFA204600211E
:101E600002224FF47C4302F0CDFA4FF480602860E8
:101E70004FF4006028604FF4805028604FF4005009
:101E800028604FF4804028604FF400402860B0BDC7
:101E90002DE9F04389B040F6014003F015FC41F212
:101EA000150003F011FC40F6154003F00DFC40F264
:101EB0000044C4F20204204604214FF4007202F0F0
:101EC00035FA204604214FF4807202F02FFA2046A2
:101ED000022101224FF400734FF002084FF0010974
:101EE00002F066FA2046012102224FF4007302F04C
:101EF00089FA2046022101224FF4807302F058FA39
:101F00002046012102224FF4807302F07BFAA4F5EF
:101F1000D83541F68021C0F206012846002200276C
:101F200002F09AFA284600210022722302F05AFB9E
:101F3000284602F02DFB28464FF4806102F086FA15
:101F400004F5B8452846062101F00AF86E463046E9
:101F500001F05EF94020069040F2DF00C2F200007E
:101F6000CDE90207A4F5D030A0F57F60CDE90009E6
:101F70004FF4403008902846062132460497CDF8A9
:101F80001C8001F001F92846062100F0D5FF284603
:101F90000621012200F0C4FF09B0BDE8F083000073
:101FA000B0B541F21C0003F08FFB02F089FE4FF444
:101FB000E05003F097FA4FF4E05003F0A3FA4FF427
:101FC000807003F0B1FB40F23074C2F20004FF20D5
:101FD00040F22C752060C2F200057F20286041F697
:101FE0000F4003F071FB03F05DFC43F67000C4F298
:101FF0000200006840F26811C0F30120C2F2000143
:102000000860296840F23870C2F20000018121683E
:102010004181252101700621C17043F20401A0F81D
:1020200001100021C0E9031145F6231181805021E0
:10203000817103F0B1FB30B142F65000C4F20000F0
:1020400043F2F021016003F0E5F90020B0BD00008B
:10205000B0B58AB040F6164003F036FB41F20004FA
:10206000C4F2010404F5AA352846052100F078FFE2
:1020700040F6BC110020C2F20001CDE903104FF47C
:1020800000710891211D07900191012105904FF4E5
:1020900040300291099001AA2846052101F074F808
:1020A0002846052100F048FF28460521042200F0BB
:1020B00037FF2846052100F029FF4FF4406003F068
:1020C00003FB41F2041003F0FFFA04F570452846C3
:1020D00007214FF4007202F029F9284607214FF436
:1020E000806202F023F92846022101224FF4007396
:1020F00002F05EF92846002102224FF4007302F03C
:1021000081F92846022101224FF4806302F050F940
:102110002846002102224FF4806302F073F9204622
:1021200006F066F920464FF4E13106F0F9F8204652
:10213000042106F009FA2046082106F00BFA204691
:10214000402106F0BFF9204606F0C6F925200021FF
:10215000002202F0EDFB20464FF4417106F0D6F963
:102160000AB0B0BDFFF774BF80B502F08DF802F081
:10217000E1FCBDE8804001F0EFB8000070B596B01A
:1021800041F2000404A8C4F2010404F019F81D2867
:102190000BD15BA1204602F07FFB9DF84800072889
:1021A00006D85EA151F8201006E0024646A186E05E
:1021B00049F6FC41C0F60001204602F06DFB0C9888
:1021C0004FF4806101EB802503F0C2FF064603F067
:1021D000BFFF00EE100A9FED591AB8EE400A20EE3C
:1021E000010A20EE010A10EE100AFEF78DF841EC0C
:1021F000100B49F6A151C0F60001204632468DED84
:10220000000B02F049FB49F66D51C0F60001204673
:102210004FF4007202F040FB49F68751C0F600010E
:1022200020462A4602F038FB9DF8102049F69F31DF
:10223000C0F60001204602F02FFBBDF8122049F63F
:102240008431C0F60001204602F026FB059849F6CD
:102250002C51000E8DF80A000598C0F60001000C04
:102260008DF80B0005980DF10A02000A8DF80C009C
:1022700005988DF80D009DF818008DF80E000020CF
:102280008DF80F00204602F007FB9DF819009DF81D
:102290001910020901F00F0349F6D731C0F6000109
:1022A000204602F0F9FA079A49F6B731C0F6000164
:1022B000204602F0F1FA9DF8240021A1421C20469C
:1022C00002F0EAFA16B070BD0D0A4661696C6564E9
:1022D00020746F206765742053442063617264200A
:1022E000696E666F726D6174696F6E2C20657272B3
:1022F0006F7220636F64653A2025640D0A00000048
:102300000D0A2A2A2A205344204361726420496E10
:10231000666F202A2A2A0D0A00000000589B000838
:102320002C9B0008699C0008FC9C0008FC9C000891
:102330008C9C0008D19C0008A99C00080000803AF1
:102340004353442056657273696F6E3A2025642E9C
:10235000300D0A0010B5044640780A4604F13001F9
:10236000012300F085FD00281CBF032010BDB4F838
:102370002E024AF6552188421CBF022010BD94F857
:10238000672094F8683094F86610120244F2461000
:1023900042EA0342C0F254001144814204BF0020CB
:1023A00010BD94F8832094F8843094F882101202BF
:1023B00042EA03421144081A18BF012010BD000070
:1023C0002DE9F04381B007683B78303B092B0AD8F0
:1023D0007E783A2E06BF02370760002333B10B2008
:1023E00001B0BDE8F0830023002BF8D140F240108B
:1023F000C2F2000004680C603CB32078154670B14E
:10240000607800F055FDC10709D1410728460A222E
:10241000002D18BF02EAE17001B0BDE8F083002092
:10242000208000F0F5FCC10713D1002D18BF10F07B
:10243000040012D1607804F13005294600220123FE
:1024400000F016FD68B1032032E00C2001B0BDE8B9
:10245000F083032001B0BDE8F0830A2001B0BDE89D
:10246000F083B4F82E024AF65521884211D194F82F
:10247000672094F8683094F86610120244F246100F
:1024800042EA0342C0F254001144814203D10020C9
:102490000EE002200CE094F8832094F8843094F845
:1024A0008210120242EA03421144081A18BF0120A6
:1024B000012809D194F8F21131B1D4F8F66120461F
:1024C0003146FFF747FF00E0002628B1032828D156
:1024D000012001B0BDE8F083B4F83B00B0F5007F07
:1024E0001FD1B4F84600002808BF606D94F8403052
:1024F000E061D91E11F1020FE37012D394F83D1080
:102500004A1E81EA0207FFB2D2B29742A17008D9EF
:1025100094F8417094F8422047EA02223F07228152
:1025200003D00D2001B0BDE8F083B4F84370002F54
:1025300008BF276DB4F83E90B9F1000FF1D000FB51
:1025400003FE0EEB12134B449F42EAD3FF1A8F4255
:10255000E7D3B7FBF1F140F6F5774FF00108B94248
:102560004FF6F67788BF4FF00208B942334428BFD0
:102570004FF0030801F1020CA36206EB0903B94214
:10258000C4F818C0236212D2002ACAD003EB0E028C
:10259000A1F6F6731B0B0E2B626291BF4FEA4C0241
:1025A0000CEB4C0201F0010303EB520205E0002AA0
:1025B000B7D1E26D62624FEA8C0202F2FF12B0EB19
:1025C000522FAED34FF6F6704FF0FF320023814208
:1025D0004FF00000C4E9033225D3B4F860106071F5
:1025E00060788A1929460123626100F041FCD0B964
:1025F000B4F82E024AF65521884214D1206B45F2D8
:102600005221C4F2611188420DD1D4F8140247F26C
:102610007221C6F24111884205D1D4F81802D4F8CB
:102620001C12C4E9031040F24410C2F200000188F9
:1026300084F80080013101800020E180E062207197
:1026400001B0BDE8F0830000F0B581B00D4604464E
:1026500041B12046294601F0B3FD022809D20120EC
:1026600001B0F0BDE76857B1A069874228BF0127D4
:1026700006E0A1692F46884202D201B0F0BD0127D1
:102680003E4600BFA0690136864228BF022601D31C
:10269000022F0AD32046314601F092FD411CECD0B6
:1026A00030B10128E9D0BE42ECD1002001B0F0BD2C
:1026B000204631466FF0704202F0A4FD014635B16C
:1026C00029B920462946324602F09CFD014631B127
:1026D0000120012908BF4FF0FF3001B0F0BD206993
:1026E000E660411C03D00138206101206071304652
:1026F00001B0F0BD47F20041C4F20001884218BFAA
:10270000704780B540F61D0002F0FEFF40F61D0048
:10271000BDE8804002F0E8BF29B1012918BF704729
:102720006FF4803101E06FF0010102681140016037
:102730007047000029B1012918BF70476FF0805120
:1027400001E06FF4805102681140016070470000A1
:1027500029B1012918BF70474FF4803100E00121F1
:10276000026811430160704729B1012918BF704701
:102770004FF4802100E0042102681143016070479A
:10278000012906D0002918BF7047016821F03801DF
:1027900003E00168120421F4601101600168114333
:1027A00001607047012906D0002918BF70470168F1
:1027B00021F0C00103E00168120421F4400101602E
:1027C000016811430160704740F2FC11C2F2000140
:1027D000086000BF08680028FCD1704740F2FC1078
:1027E000C2F200000168002908BF70470168013982
:1027F000016070472DE9F04F81B00021044600F0E0
:10280000B1FA10B101B0BDE8F08FFF274FF6FF75A8
:102810004FF00D094FF0FF0B2068216901F0FEFF1A
:102820000028EFD166693178E52909D0002900F048
:102830008E80F27A130702F03F0209D50F2A07D0E3
:10284000FF272046002100F087F80028E4D0D9E7D0
:102850000F2A1ED1D4F81C80B8F1000FF1D0480621
:1028600006D596F80DB0E08801F0BF010F46208430
:10287000F8B28142E4D1707B8345E1D13078012503
:1028800000F0BF0000FB09F0A0F10D094FF0000AB5
:102890002EE039060FD100224FF0FF317318D2B26B
:1028A00057085B7847EAC21201310A291A44F5D168
:1028B000D1B28B45A6D0A1692584CA7AD207BFD1EF
:1028C000002300BF0B2B9DD01A46F35C8F5CBB42EC
:1028D00002F10103F6D00B2AB2D193E74FF6FF7550
:1028E000A84232D100250AF1010ABAF10D0F18D021
:1028F00049F29460C0F6000010F80A00002D305A2A
:1029000080B2EBD001F0C8FAB9F1FE0F10D805463D
:1029100038F8190001F0C0FA854209D109F101091E
:10292000E1E73078400605D525B138F8190008B13F
:10293000012000E000204FF6FF75013F4FF00D0928
:10294000002818BF4FF0FF377BE70120F5E7042090
:1029500001B0BDE8F08F00002DE9F047C288541C9B
:10296000A7B2A74228D1036933B314F00F0509D0E9
:102970000168002701EB45113031C4804161F8B294
:10298000BDE8F087C268013303618AB103689E78AD
:10299000013E16EA171FEBD10E4682461846114635
:1029A00001F00EFC02280BD20227F8B2BDE8F08736
:1029B000016809898F42DBD30427F8B2BDE8F087AC
:1029C0000146013015D0DAF800205046936999424B
:1029D00067D396B1C1681046FFF736FE0146013055
:1029E00014D071B10129504615D14FF000090227CA
:1029F00053E00127F8B2BDE8F0874FF00009042743
:102A00004BE04FF000090727504646E04FF0000921
:102A10000127504641E00068884600214FF0000938
:102A200001F0FCFE10B10127504635E0DAF8000055
:102A30004FF4007130305646FDF732FCDAF80020D2
:102A400041469369A8F10201023B5046994204D2E3
:102A50009378976A01FB037300E000230168002666
:102A60008F78D3629FB101274FF000090F7108469C
:102A7000002101F0D3FE0028D6D1DAF8001001368B
:102A8000CA6A8B78504601329E42CA62EED3CA6A45
:102A90004FF00109921BCA624146B9F1000F3FF4A1
:102AA0006EAF02688B1E9769C160023FBB4204D2C1
:102AB0009178926A03FB012100E00021016157E750
:102AC0002DE9F04F87B0D0E9066A83463068F37A83
:102AD0007168D6F807200290D8070391CDF80F202F
:102AE00003D1980766D4012574E00020AAF10209F9
:102AF000012705AD0193F072CBF81C00DDF80F1033
:102B00000298039A1FFA87F8C6F80710B8F1060F63
:102B10003946726030600BD34846394630F8023F80
:102B20008AB2C903448841EA5201002C1944F5D104
:102B3000072006231A4601F00F0303F13004392C55
:102B4000C1F30B1188BF03F137042C54013800295D
:102B5000A2F10103EED17E2129544FF0000138B1DA
:102B6000735C202B04D0013A01F10101F8D1014638
:102B700007289ABF2A5C01302022725401310829AB
:102B8000F6D35846FFF736FE28B9B8F1630F07F1C0
:102B90000107B3D36427B9B2642903D1072007B072
:102BA000BDE8F08F04281AD1019BF372CBF81CA06A
:102BB000980798D5002000BF81B23AF81120013063
:102BC000002AF9D101F1190043F61431C1F2B131F3
:102BD000A0FB01055846002100F0C4F810B107B071
:102BE000BDE8F08F002600270EE000BF390407F192
:102BF0000107B9B208BFBBF80660A94214D0584615
:102C00000121FFF7A9FE78B9DBF80000DBF810100E
:102C100001F004FE40B9DBF814100978E529E5D08D
:102C20000029E3D00027EAE730B9022D04D3B1B27E
:102C3000584600F097F868B30028D0D1DBF80000C0
:102C4000DBF8101001F0EAFD0028C8D1DBF8141001
:102C50000022CA618A614A610A61CA608A604A6068
:102C60000A60DBF818204FF0FF33013ACF1812F852
:102C7000016F01330A2B7E70F8D1DBF81820D27A6D
:102C800002F018020A73DBF8001001220A7107B083
:102C9000BDE8F08FDBF818004FF0000A4FF0FF316D
:102CA00042185FFA8AF35F08527847EAC31301318A
:102CB0000A2903EB020AF3D149F294694FF6FF7730
:102CC000A5F10108C0F60009DBF80000DBF81010E0
:102CD00001F0A4FD0028AFD1DBF814000F22DBF8CF
:102CE0001C10A0F80B205FFA88F20D267243002317
:102CF0000D3A002580F80DA0438300BFBD421CBFE4
:102D000031F81250013219F80340002D03F101038C
:102D100000EB040605554FEA152408BF3D460D2B70
:102D20007470EBD1BD4203D148F0400107E000BF11
:102D300031F812100029414608BF48F040010170E7
:102D4000DBF800000121017158460021FFF704FE65
:102D500000287FF471AFA8F101085FEA0841B3D100
:102D60006AE700008268C180012A04BF0220704720
:102D700070B5044600680D4681698A4236D28AB130
:102D8000BAB18078B5EB001F1CD228462168931E8B
:102D90008E69E260023EB3422AD28A78896A03FBD6
:102DA000021126E0017803290CBF426A0022002AA2
:102DB000E7D101890022A942E26017D9406A00EBFD
:102DC000151018E0060100BF2068114601F0F8F95F
:102DD0000246013019D0022A08D320688069824255
:102DE00004D2AD1BA8B2B042EED2CFE7022070BD34
:102DF000002101EB1010216805F00F0201EB4211D8
:102E00003031C4E90401002070BD012070BD000014
:102E100080B594B00021019128BB03F097FE1D28D6
:102E200021D102A803F0CCF91D281CD1BDF84C001B
:102E300003F0F8FB01A803F0B1FC9DF80710890727
:102E400010D41D280FD14FF4006003F051F81D2855
:102E500009D1002004F064FB1D3818BF012014B014
:102E600080BD00BFFEE7012014B080BD0020704788
:102E7000844600294FF0040018BF002B00D1704792
:102E8000BCF1000F01D01C200EE080B552020846B4
:102E900011464FF40072012B02D102F079FD01E0DE
:102EA00003F054FFBDE880401D3818BF0120704773
:102EB000002818BF01207047844600294FF0040005
:102EC00018BF002B00D17047BCF1000F01D01C20AF
:102ED0000EE080B55202084611464FF40072012BF5
:102EE00002D102F061FE01E004F082F8BDE880400A
:102EF0001D3818BF0120704701EB410100EBC100F4
:102F0000016921F0010101617047000001EB4101FD
:102F100000EBC100016941F001010161704700004F
:102F200001EB410100EBC100016921F0606141EA60
:102F3000426101617047000001EB410100EBC100FB
:102F4000016921F4807101617047000001EB4101CA
:102F500000EBC100016941F480710161704700001C
:102F600001EB410200EBC20213694FF03D0C23F06C
:102F7000010313610023136153619361D3611362F1
:102F8000212353620A1F28BFD1B201EB410301F094
:102F900002014FF00C024FEA410138BF082201EB59
:102FA000430113580CFA01F1194311507047000006
:102FB0000B1F38BF0B46D9B24FEA410151FA83F1DA
:102FC00003F002034FF00C0C4FEA430338BF4FF0FD
:102FD000080C03EB41015CF8003002FA01F11943DF
:102FE0004CF80010704700000B1F34BF0B46043034
:102FF000D9B2490051FA83F103F002035B00006883
:1030000003EB410102FA01F1084018BF01207047AB
:1030100001EB410100EBC1000169002A21F0200110
:1030200018BF20310161704701EB410C2021002ABB
:1030300008BF1C21084440F83C30704770B501EBD4
:10304000410100EBC100136A416A194341F00401D8
:103050004162116848F23F738161D168CFF61C6309
:10306000C161D16A41610169146919405368D2F89C
:1030700030E01943D2F828C02143D2E9065641EA8C
:103080000E0141EA0C012943314301619368016952
:10309000012B06D0002B14BF41F4004141F4007114
:1030A00001E021F40071016151690369002923F4F1
:1030B000806308BF03F580630361516A02690029D8
:1030C00022F4807208BF02F58072026170BD0000B8
:1030D000F0B58DB046F20044C4F202040546204625
:1030E0000321012203260127FFF762FF2046032167
:1030F0000422FFF75DFF204603210822FFF758FF57
:10310000204603211022FFF753FF204603212022EF
:10311000FFF74EFF20460321FFF7EEFE2046032176
:10312000FFF71EFF42F68040C4F20100009000202D
:10313000CDE90A0005904FF4805001904FF4804093
:1031400004904FF440300C904FF4001007904FF46F
:10315000000006906A462046032103950297CDE9B8
:103160000867FFF76BFF204603210122FFF750FF9E
:10317000204603210422FFF7D3FE20460321FFF758
:10318000C5FE0DB0F0BD000080B501EB410100EBC4
:10319000C100416A48F23F7321F0040141621168A5
:1031A000CFF6FC7381619168C161D16941610169A8
:1031B000D2F818E001EA030C116A136941EA0C0124
:1031C00041EA830141EA0E01194301615368016933
:1031D000012B06D0002B14BF41F4004141F40071D3
:1031E00001E021F400710161D1680369002923F431
:1031F000806308BF03F58063036151690269002998
:1032000022F4807208BF02F58072026180BD000066
:1032100000210122C0E90012C0E90212C0E9041233
:10322000C0E9061101627047F0B58DB046F2004466
:10323000C4F2020405462046032101220326012789
:10324000FFF7B6FE204603210422FFF7B1FE204619
:1032500003210822FFF7ACFE204603211022FFF7CE
:10326000A7FE204603212022FFF7A2FE20460321CD
:10327000FFF742FE20460321FFF772FE42F6804030
:10328000C4F20100009040200A9000200B900590AD
:103290004FF4805001904FF4804004904FF4403040
:1032A0000C904FF4001007904FF4000006906A460F
:1032B0002046032103950297CDE90867FFF7BEFE7C
:1032C000204603210122FFF7A3FE2046032104220A
:1032D000FFF726FE20460321FFF718FE0DB0F0BDD4
:1032E00001EB410100EBC1004261704701EB41017C
:1032F00000EBC100406970472DE9F047DDF82090F0
:103300000746B9F1000F4FF0000023D0DDF824A0EC
:10331000BAF1000F08BFBDE8F08740F20024C2F206
:1033200000040E4620463C2198461546FCF7B8FF9F
:103330004FF6FF71002061864FF4FA7184F8300077
:10334000C4E90D0101202760A680A560A4F80C80C7
:10335000C4E906A9BDE8F0872DE9F04782B040F244
:103360000025C2F20005AE88804600200190009042
:10337000EEB100274FF00109EA4600242868E96908
:103380003844884704F01F0109FA01F100284FEA88
:1033900054105AF820200CBF22EA01011143AE88D4
:1033A0000134B44207F11C074AF82010E6D32F6914
:1033B000C7B14FF001096C46E969381D884706F02E
:1033C0001F0109FA01F100284FEA561054F8202095
:1033D0000CBF22EA010111433F680136002F44F877
:1033E0002010E9D16846414600F068F802B0BDE817
:1033F000F08700002DE9F04385B0984616468146D7
:1034000000204FF0553C4FF033334FF0013700248C
:10341000CDE9020003E000BF0134012C13D156F8BE
:103420002450002DF8D00CEA5502AA1A22F0CC350F
:1034300003EA92022A4402EB121222F0F0327A439B
:1034400000EB1260E8E7A8B3002002AF51F820209B
:1034500056F820301A4047F8202001300128F5D0D6
:10346000384631460822FCF72DFF40F200220021A9
:10347000C2F2000202EB81031B6A56F821502B4076
:1034800047F8213001310129F4D0B0FA80F0470922
:1034900002A831460822FCF715FFB0FA80F0410976
:1034A00001264FF0FF3548463A464346CDE90056DF
:1034B00001F05CFD05B0BDE8F08300002DE9F04FA0
:1034C00087B040F2002BC2F2000B9BF830208846F8
:1034D0005FEAC279054664D0BBF80C200020CBF827
:1034E000280011460392CBF82C0082B3DBF808A029
:1034F00004AE5746002405E003980134844207F1E6
:10350000240724D00020CDE9040004EBC4000AEB1A
:103510008001002055F8202057F820301A4046F846
:10352000202001300128F5D030460822FCF7CAFEE1
:103530000028E1D1002000BF0BEB80018A6A57F818
:10354000203001301A4301288A62F5D0D4E7DBF835
:10355000144034B304AE01E0246814B30020271DE6
:10356000CDE9040004EB800255F8201052681140A8
:1035700046F8201001300128F4D0304639460822A0
:10358000FCF7A0FE0028E7D1002000BF0BEB800174
:103590008A6A57F8203001301A4301288A62F5D030
:1035A000DAE7BBF8046086B34FF0000A0027002476
:1035B0001EE000BF61090BEB8102126A55F8211071
:1035C000DBF8000004F01F0322FA03F6D940384468
:1035D00001F0010206F001014346CDE9004A01F085
:1035E000C5FCBBF804600134B44207F11C070CD2DF
:1035F000B9F1000FDED060090BEB8000806A04F0A7
:103600001F01C840C007ECD1D4E7DBF8104044B339
:103610004FF0000A18E000BF71090BEB8102126A3B
:1036200055F8211006F01F0322FA03F7D940201D98
:1036300001F0010207F001014346CDE9006A01F003
:1036400095FC2468013664B1B9F1000FE4D070092B
:103650000BEB8000806A06F01F01C840C007F0D164
:10366000DAE7BBF80C0088B100240026DBF808007C
:103670002946021902F108004346FFF7BBFEBBF8DA
:103680000C000136864204F12404EFD3DBF8144029
:1036900054B100BF221D04F10C0029464346FFF738
:1036A000A9FE2468002CF5D1D5E90001CBE9080179
:1036B00007B0BDE8F08F000043F6084CC4F2010CDF
:1036C0005CF8083C012923EA00034CF8083C5CF84C
:1036D000043C23EA00034CF8043CDCF8003023EA05
:1036E0000003CCF80030DCF8043023EA0003CCF807
:1036F000043019D021B95CF8081C01434CF8081CAF
:10370000022A18D0012A6FEA000118D0002A18BF37
:103710007047DCF800201043CCF80000DCF804000F
:103720000840CCF8040070475CF8041C01434CF8D6
:10373000041C022AE6D1DCF80010014302E0DCF8A8
:1037400000201140CCF80010DCF804100843CCF83D
:103750000400704743F61441C4F201010860704749
:1037600043F61441C4F201010968084018BF012062
:103770007047000010B5044600F0D8F9002804BFD7
:103780000021216010BD000000281CBF0B207047E5
:1037900040F24010C2F200000268002A1CBF002361
:1037A000137000291CBF00220A70016000207047BE
:1037B0002DE9F04FADF50F7D8146002016468E9124
:1037C000C9F8000002F01F0A02F01E028EA885A9A7
:1037D000FEF7F6FD82A98B9102A98C9118B98E99FA
:1037E00085A800F06FFB8A9C0546002C08BF0625C3
:1037F000002818BF0546BAF1040F0FD2002D76D16C
:10380000E07AC1061DD4C007284618BF0720BAF1C8
:10381000020F28BF054628066BD17EE055B1042D66
:1038200003D185A8FFF74CF905468A9C4AF0080A9F
:1038300085B15CE0E07A10F0110F06D007254DB19C
:1038400055E00425280654D167E0700748BF0825D5
:10385000002D4CD11AF0080049D000F013FD217D55
:10386000627DA37E0904E77E41EA0261C4F80E008E
:1038700000201944DDF814B2E072E06151EA072833
:103880006083A0824FF001008BF804002FD0DBF89A
:103890002C00B8F1010F019026D0DBF8180040454C
:1038A00022D90025464600BF5846314600F088FC24
:1038B0000746013023D0C7B1012F15D058463146F5
:1038C000002201F09FFC054678B9DBF810003E4667
:1038D00001303EBFCBF8100001208BF80500DBF86B
:1038E00018008742E0D300E0022528060AD0280607
:1038F00013D0E0B1E8B20DF50F7DBDE8F08F0125E2
:103900002806F4D1A8F101000199CBF80C00584623
:1039100000F084FF05462806EBD185990AF00802DD
:10392000C96A4AEA820AC9E907140028E2D189F87B
:1039300006A0207D617DA27E0004E37E40EA016056
:10394000104440EA0320C9F81000E0698599C9F8DD
:103950000C000020C9F80800C9F81800C888C9F888
:103960000010A9F80400C5E72DE9F04F81B0044626
:1039700000689B4616460F4600211960C8B10178C1
:10398000B9B1A188C2888A4213D14078FFF790FA72
:1039900000F00100404200F0030068B994F906000D
:1039A00000280CD4C0B2C0070DD1072001B0BDE87B
:1039B000F08F09200028F1D001B0BDE8F08F02207F
:1039C00001B0BDE8F08FD4E90201081AB04238BF57
:1039D0000646002E00F09A8004F1240004F123082A
:1039E00000900DE04FEA4A20A16807440144A1601D
:1039F000DBF80010361A0144CBF8001000F0868086
:103A0000A168C80512D0A1687A1E6FF35F21C1F5C5
:103A10000070B04228BF30464144034611F8015FB0
:103A2000013B02F8015FF9D1DEE700BF206845469F
:103A30008278013A02EA51225FFA82F8B8F1000F67
:103A40000CD129B1616900F0BBFB022803D261E00F
:103A5000206902285ED3411C60D0606120686169E2
:103A600082690239023A914204D28278836A01FB68
:103A7000023100E0002100294CD05FEA562A01EB18
:103A8000080927D0827808EB0A014078914288BF64
:103A9000A2EB080A5FFA8AF339464A46FFF7E8F9CB
:103AA000A179C8BB4806A84640F2FF1C9AD5A06978
:103AB000A0EB0900504595D207EB40204FF0FF31B5
:103AC000424600BF431812F8015F013161455D7045
:103AD000F8D187E7A269A8464A4514D0A1794906DA
:103AE00009D5407800990123FFF7E6F9A17998B943
:103AF00001F0BF00A0712068009940784A46012378
:103B0000FFF7B6F950B9C4F818907CE7002001B06F
:103B1000BDE8F08F022002E0012001E00120A17940
:103B200041F08001A17101B0BDE8F08FB0B504464D
:103B3000006878B1017869B1A188C2888A4209D148
:103B40004078FFF7B5F900F00100404200F00300B3
:103B5000E8B901E00920D0B9A1798A0617D548064D
:103B600010D52068A269407804F124010123FFF7F1
:103B7000A3F901460120002918BFB0BDA07900F0CB
:103B8000BF00A0712068E16900F048FE00B1B0BD3F
:103B9000256AE87A40F02000E872E0682877E0685B
:103BA000000A6877E089A877E07BE8772069A87643
:103BB0002069000AE876608A2875E07C687500F064
:103BC00061FBC5F81600A079012100F0DF00A071AB
:103BD00020680171BDE8B04004F00AB82DE9F04F4B
:103BE00083B004460068984616468B46002119604B
:103BF000C8B10178B9B1A188C2888A4213D140788E
:103C0000FFF756F900F00100404200F0030068B9E8
:103C100094F9060000280CD4C0B280070DD4072008
:103C200003B0BDE8F08F09200028F1D003B0BDE853
:103C3000F08F022003B0BDE8F08FE0687142884247
:103C400080F0E88004F1240A04F1230002900CE0E3
:103C50006802A16883440144A160D8F80010361AB4
:103C60000144C8F8001000F0D580A068C10519D043
:103C7000A268ABF101016FF35F22C2F50070B042A0
:103C800028BF3046029B1A44034600BF11F8015F6B
:103C9000013B02F8015FF9D1A17941F04001A17126
:103CA000D7E700BFD4F8009099F80210013901EA73
:103CB0005021CFB2002F52D120B161694846FEF7A2
:103CC000C3FC45E02069002842D1D9F80C202AB174
:103CD000D9F81800824228BF012200E001221546CF
:103CE0000197D9F81800691C81420D4628BF0225AA
:103CF000012A01D881420CD248462946174600F0D5
:103D00005FFA411C22D030B101281FD03A46BD4293
:103D1000E7D100201AE0484629466FF0704201F0D2
:103D200071FA30B101284FF0010008BF4FF0FF30A9
:103D30000CE0D9F81000C9F80C50411C1FBF013825
:103D4000C9F81000012089F805002846019F20616C
:103D5000411C71D000285DD0012868D06061A07935
:103D600040060CD52068A269407851460123FFF730
:103D7000A3F8A179002864D101F0BF00A0712068E8
:103D8000616982690239023A914204D28278836A77
:103D900001FB023100E00021002948D0750A01EB47
:103DA000070926D0827879194078914288BFD51BBF
:103DB000EBB259464A46FFF77FF8E8BBA069A0EB93
:103DC0000900A842BFF444AF0BEB402001384FF08C
:103DD000FF3140F2FF1700BF0AEB010210F8013F6C
:103DE0000131B9425370F7D1A07900F0BF00A07142
:103DF0002EE7A16949450AD0D4E90212914206D2C0
:103E0000407851464A460123FFF732F8A0B9C4F87A
:103E100018902DE7D4E90201884288BFE060A079BC
:103E200040F020010020A17103B0BDE8F08FA0791F
:103E300060F07F010220F6E7A07960F07F010120A9
:103E4000F1E761F07F010120EDE70000802838BF35
:103E5000704769B1FF2884BF0020704749F2A26112
:103E6000C0F6000101EB40006FF0FF01405A7047BF
:103E700049F2A2620021C0F6000200BF32F8113000
:103E8000834204D001318029F8D1802000E088B23B
:103E9000C0B280F08000704749F6F4720021C0F68D
:103EA000000200BF32F81130834204D00131EF2903
:103EB00008BF7047F6E749F61460C0F6000030F816
:103EC000110070472DE9F04F87B08B460978824684
:103ED0005C2904D02F2908BF0BF1010B01E00BF185
:103EE000010B0024CAF808409BF80000202808D2E3
:103EF00050460021FEF736FFCAF8144007B0BDE86F
:103F0000F08F49F6F910C0F600000138069049F626
:103F10000020C0F60000A0F10108CDF8088000BF25
:103F20005E4600E0013630785C28FBD02F28F9D0BF
:103F3000DAF81C70202805D24FF004090125002171
:103F400030E000BF002401250AE000BF27F814007C
:103F500030194078611CC2B201351F2A0C461ED9A7
:103F6000C0B22F284FF0000917D05C2815D0FF2CC5
:103F700000F0C4800121FFF769FF002800F0BE8037
:103F80007F28E3D8414600BF11F8012F002A18BF4F
:103F90009042F9D1002AD9D0B0E0214602E04FF09A
:103FA000040900BF002906EB050B00F0A78048427A
:103FB00007EB410105E000BF0130A1F1020180F0F3
:103FC0009D8031F8022C2E2AF6D0202AF4D04FF012
:103FD0000008DAF81820CDF814B0A1F800804FF0EE
:103FE0002031C0F1000BC2F807105160116001E0F0
:103FF00008F1010837F818002E28F9D02028F7D04A
:10400000B81EB8F1000F18BF49F0030930F81B10B3
:104010002E2904D0BBF1010BF8D14FF0000BABF10E
:10402000010608254FF0010C002300240020019018
:1040300049F00302414601E00131914637F8110091
:104040002028F9D02E2803D18E42F5D102E000BFFE
:10405000002874D0AC4201F101083BD28E4239D025
:10406000802814D30021CDE9035C1D46FFF7EEFE46
:1040700038B149F2A271C0F60001084410F8800C72
:1040800000E000202B46DDE9035C49F0020940B165
:10409000069900BF11F8012F002A18BF9042F9D1EC
:1040A0003AB149F003095F20DAF8181008550134D5
:1040B000BEE7A0F1410189B2192902D843F00203F9
:1040C000F2E7A0F1610189B219299CBF43F0010315
:1040D0002038E9E70198C00749F003002ED18E424D
:1040E00018BF8146D8452AD801209B000B254FF0E8
:1040F000000C01900824D8469AE700BF0620002152
:10410000002954D05046FEF775FBDAF81810002845
:10411000C97A43D149074AD4DAF81400C17AC906EA
:1041200044D5017D427D837E0904C07E41EA02615F
:10413000194441EA0020CAF80800F1E68146DAF89D
:104140001800DDF808800178DDF814B0E52904BF17
:10415000052101705FEACC7018BF9B0003F00301DA
:1041600003F00C00032949F0020208BF91460C2815
:1041700008BF91465FEA897207D4012908BF49F058
:104180001009042808BF49F00809DAF818000121CD
:1041900080F80B9000200029B4D108E0042806D153
:1041A000490758BF052007B0BDE8F08F052007B0CC
:1041B000BDE8F08F40F20030C0F2033070470000DD
:1041C000F0B581B002292CD382698A4229D90278BC
:1041D000032A37D0022A27D0012A3BD1026A01EBF9
:1041E00051070C4602EB5721054600F017FB88BB30
:1041F0002846016A30357E1C6FF35F27EF5D01EBC7
:10420000562100F00BFB28BB6FF35F26A85DE20789
:1042100047EA002108466FF31F3018BF080901B0B4
:10422000F0BD012001B0F0BD026A0C4602EB112185
:10423000054600F0F3FA68B9E0B205EB4000008EE5
:1042400001B0F0BD026A0C4602EBD111054600F048
:10425000E5FA18B14FF0FF3001B0F0BD04F07F0077
:1042600005EB800090F8323090F8301090F8312053
:1042700090F833001B0460F31B6343EA02200844F8
:1042800001B0F0BD002070472DE9F041EFF310863A
:1042900072B600F0B7FC40F24817C2F200073A7E4F
:1042A00004460D4672B100F0F9FC48B300F0AAFCD8
:1042B00004460D4600F0B8FC00196941441C41F168
:1042C00000051DE0EFF3108872B600F0E7FCA8B11E
:1042D00000F090FC00F0A8FCEFF3108272B6D7E972
:1042E0000035C0186941013041F10001C7E9000102
:1042F00082F3108800F086FC04460D4688F310888F
:10430000D7E90001D7E9022300196941821A71EB4C
:10431000030205DAD7E9020186F31088BDE8F081CF
:10432000C7E9020186F31088BDE8F081F0B5D0F846
:1043300020E0D0F824C000230F27002505E000BFAF
:104340000135082D03F104030CD022FA05F6F60717
:10435000F6D007FA03F62EEA060601FA03F446EA57
:10436000040EEDE7082300240F2504E00133102B91
:1043700004F104040CD022FA03F6F607F6D005FA8D
:1043800004F62CEA060701FA04F647EA060CEDE704
:10439000C0F820E0C0F824C0F0BD00008162704782
:1043A000816170470069084018BF01207047000014
:1043B0002DE9F041D0F800E0D0F80CC000244FF017
:1043C0000308002605E000BF0136102E04F10204A8
:1043D00012D023FA06F7FF07F6D008FA04F72EEA00
:1043E000070E01FA04F54EEA050E2CEA070702FA59
:1043F00004F547EA050CE7E7C0F800E0C0F80CC098
:10440000BDE8F0810129416814BF99431943416017
:10441000B0B5D0F808C000214FF0030E002404E02E
:104420000134102C01F102010CD023FA04F5ED0740
:10443000F6D00EFA01F52CEA050C02FA01F54CEA69
:10444000050CEDE7C0F808C0B0BD0000026822F41A
:104450008062114301607047F0B581B004460220CC
:1044600017460D4600F0E0FF4DF68361C4F21B31A4
:10447000A0FB0112910C48F2FF62C0F2933290420D
:104480000A4688BF3C22636848F2A066C0F2010673
:1044900023F03F03B54243EA0203636007D844F2C6
:1044A000C042C0F2843290422BD33C2131E041F62D
:1044B0008021C0F206018D4237D84FF496715143E6
:1044C00048F63812C0F24102A1FB0212511C2162CF
:1044D000E169192221F48041002F18BF01F58041C4
:1044E00008BF0322E161E1696A4341F40041B0FB86
:1044F000F2F0E161E169020508BF41F00101084302
:1045000012E048F27F42C0F21E0290428CBF01319D
:10451000022121626900B0FBF1F0042898BF042059
:10452000E1696FF31F300843E06101B0F0BD0000A6
:1045300010B545F20041C4F20001884212D045F6A0
:104540000041C4F20001884209D045F60001C4F2DE
:104550000001884218BF10BD40F6160404E040F682
:10456000170401E040F61504204601F0CDF820467E
:10457000BDE8104001F0B8B8016821F00101016008
:1045800070470000426822F40062114341607047A6
:10459000016841F0010101607047000040F20152E2
:1045A000914202D141698069704701F01F02890977
:1045B0004FF0010C0B580CFA02F223EA02020A50E7
:1045C000704700008A09105801F01F01C84000F030
:1045D0000100704721F00101023218BF0131016171
:1045E00070470000D0F800C06FF39F232CF0020C3E
:1045F00041EA0C01016043EA02018160704700005A
:10460000016841F48071016070470000016841F465
:10461000007101607047000080B540F2341C002139
:10462000C2F2000C4FF0010E002000BF1CF8012068
:104630000EFA01F3002A01F10101DBB218BF1843A1
:104640000629F3D140F2DE0CC2F2000C9CF80020E7
:10465000824208BF80BD40F61842C4F20202C10780
:10466000114602F1100E08BF71464FF480630B60D3
:104670008107114658BF71464FF400630B60410734
:10468000114658BF71464FF480530B600107114625
:1046900058BF71464FF400530B60C106114658BF16
:1046A00071464FF480430B6081064FF4004158BFC0
:1046B000724611608CF8000080BD000003F04CFBD6
:1046C000002000F073FAC82000F03EFAFFF772FDF8
:1046D000FDF7B2FBFDF75AF8FDF7DAFBFDF712FB29
:1046E000FDF740FD41F2000449F6EF01C4F2010478
:1046F000C0F60001204600F0CFF849F6B401C0F63C
:104700000001204600F0C8F8FDF74AFB49F6DD013C
:10471000C0F60001204600F0BFF849F6C901C0F616
:104720000001204600F0B8F8FCF7A4FF17A12046CE
:1047300000F0B2F81AA1204600F0AEF8FDF74EF8EE
:104740001CA1204600F0A8F81FA1204600F0A4F804
:10475000FDF726FC21A1204600F09EF802F042F869
:10476000FCF748FF22A1204600F096F8FCF7B6F9C6
:1047700025A1204600F090F803F014FB02F038F871
:1047800001F0D6F801F0DCF8FCE700BF424F4F54CF
:104790003A2061646320646F6E650D0A00000000BA
:1047A000424F4F543A2064616320696E69742E2E23
:1047B0002E0D0A00424F4F543A2064616320646F0B
:1047C0006E650D0A00000000424F4F543A2072748B
:1047D0006320696E69742E2E2E0D0A00424F4F54CD
:1047E0003A2072746320646F6E650D0A0000000049
:1047F000424F4F543A206F6C656420696E69742E85
:104800002E2E0D0A00000000424F4F543A206F6CCC
:10481000656420646F6E650D0A0000002DE9F041AB
:10482000C66A8E4203D100273846BDE8F0810446AF
:1048300000790D4610B3607804F1300841463246E5
:1048400001230127FEF738FB10B13846BDE8F0819F
:10485000D4E9070100220844864222710ED2E7788B
:10486000022F0BD3E16960780E44414632460123A2
:10487000FEF722FB013FF8B20128F3D8002DD2D079
:10488000607804F130012A4601230127FEF7F0FA8F
:104890000028DAD1E562C6E782B0F0B5ADF5017D5A
:1048A0000E4601AD0446CDE9862386AB28464FF47B
:1048B00000713246009303F053FE40F2B877C2F223
:1048C00000070021398039880646884212DD00BF82
:1048D0003888295C204603F087FD00BF2046072169
:1048E00003F000FE0028F9D038880130388038887D
:1048F0008642EDDC30460DF5017DBDE8F04002B0AA
:1049000070470000002848BF704700F01F010122D7
:1049100002FA01F11C2202EAD0004EF28012CEF21D
:1049200000028150BFF34F8FBFF36F8F70470000BD
:10493000B0B54EF60C5ECEF2000EDEF800304FF051
:10494000FF3503F4E063A3F54073B3F5A06F22BF16
:1049500040F20053C0F2FA53CEF80030DEF80030D7
:104960004EF2001CC3F3022383F00704042C28BF7B
:104970000424033B05FA04F438BF0023A143994003
:1049800005FA03F39A4300F00F037344CEF2000CD0
:1049900011430833B0F1FF3F4FEA011100EB0C0265
:1049A000C8BF02F540730028197048BFB0BD00F0C1
:1049B0001F01012202FA01F1C0F342104CF820104D
:1049C000B0BD00004FF68072C1F6FF72114008437F
:1049D0004EF60851CEF200010860BFF34F8F7047CA
:1049E00081B0F0B5ADF5027D02AE0C460546879369
:1049F00087AB30464FF40071019303F0B1FD0746D9
:104A00002846214632460823FCF704F938460DF5BE
:104A1000027DBDE8F04001B0704700002DE9F04391
:104A200085B041F20005C4F2020528464FF400416A
:104A3000FFF7B8FC804628464021FFF7B3FC8146CB
:104A400028464FF40061FFF7ADFC074628461021C9
:104A5000FFF7A8FC044628468021FFF7A3FC064682
:104A6000A5F540600121FFF79DFC05461FA200202F
:104A700000214346CDE90097CDE902460495FFF7B2
:104A8000AFFFFFF701FC00F055F803460F461DA2EB
:104A900000200121CDE90037FFF7A2FF40F26C149E
:104AA000C2F200042388678819A20020022100971F
:104AB000FFF796FF40F6BC30C2F20000008844F6D3
:104AC000D35180B2C1F26201A0FB011297094FF4E9
:104AD0007A71238807FB110611A200200321CDE97A
:104AE0000076FFF77DFF05B0BDE8F0834B45592008
:104AF0005354413A202564256425642564256425A2
:104B00006400000075775469636B3A256C6C64002F
:104B100041303A257520567265663A2575000000C9
:104B2000413A253034642020443A25642E25303320
:104B30006420560080B540F24812C2F20002526969
:104B40000023FBF763FB80BD70B540F2481440F2D0
:104B50001072C2F20004C2F2000261691368A1FB84
:104B600000105B2BACBF12685A22D317561A834130
:104B700018DA8D1A60EBE276FFF786FB2D184E41AE
:104B8000FFF782FB421B71EB0602A8BF70BD281A1B
:104B9000626966EB01010023FBF738FB00F004F8C3
:104BA0000028EDD170BD00000120704770B540F2C3
:104BB0004816EFF3108572B6C2F20006307600F0A8
:104BC0003BF8044600F016F885F3108803F050FB1C
:104BD0000020C6E90000C6E90200FCF7DDFB204624
:104BE00070BD00004EF21800CEF2000000210160FE
:104BF000704700004EF60450CEF200004FF00071F6
:104C0000016070474EF21400CEF200000168406867
:104C1000081A4FF0000161F10001704740F20000F6
:104C2000C2F20000006870474EF21400CEF200009D
:104C30000068002170470000C0B94EF21001CEF2AA
:104C4000000100226FF07F43EFF3108072B60A601C
:104C50004B604EF60453CEF20003DA778A600722E7
:104C60000A604FF00071196080F3108801207047CE
:104C700080B5FFF7D9FF40F2481CEFF3108E72B6F3
:104C8000C2F2000CDCE90032C0185141013041F1A0
:104C90000001CCE900018EF3108880BD4EF604506F
:104CA000CEF200000068C0F3806070474EF2100042
:104CB000CEF20000016821F00101016070470000A0
:104CC00047F20000C4F20000016841F48071016005
:104CD0007047000020B1012818BF7047082000E08D
:104CE000042047F20001C4F200010A681043086082
:104CF00070470000B0B547F2000CC4F2000CDCF8BD
:104D000000E04FF2FC33CFF6F37303EA0E03CCF866
:104D10000030DCF80030B1F5402F43EA0003CCF856
:104D200000300DD1DCF8001040F20043C0F20C035B
:104D3000002808BF03F5806341EA0300CCF80000B7
:104D40004EF21000CEF20000D0F8001D40F21C7CA4
:104D500041F00401C0F8001D0168C2F2000CCCF85B
:104D60000010D0F8F01040F2207EC2F2000ECEF813
:104D70000010D0F8F43040F22471C2F200010B6050
:104D8000D0F8F84040F22873C2F200031C600468B7
:104D90000425C0F201052C4004604FF63104CFF623
:104DA0007F74C0F870414FF6FF04CBF6FF74C0F873
:104DB00074416FF48054C0F87841002A0FBF30BFAF
:104DC00040BF20BF20BFDCF800200260DEF80020DA
:104DD000C0F8F0200968C0F8F4101968C0F8F8109D
:104DE000D0F8001D21F00401C0F8001DB0BD000086
:104DF000022927D10088062888BF70470FF20401D6
:104E0000DFE800F0213812190B04040040F62C40B2
:104E1000C4F202004FF4004113E040F62C40C4F20B
:104E200002004FF480410CE040F62C40C4F2020036
:104E30004FF4805105E040F62C40C4F202004FF4DC
:104E400000510160704740F62C40C4F202004FF45C
:104E5000806140F234130160C2F2000318780AA1A5
:104E6000B0FA80F0420941F20000C4F201001A7069
:104E7000FFF712BD40F62C40C4F202004FF400616F
:104E80000160FCF7F7BC00BF427574746F6E203090
:104E900020436C69636B6564212075634C65645BBA
:104EA000305D203D2025640D0A00000000880628A2
:104EB00084BF0020704780B5DFE800F0041E1118A1
:104EC0000B242B0041F20000C4F202004FF4004119
:104ED00026E041F20000C4F20200802120E041F20D
:104EE0000000C4F202004FF4006119E041F200003A
:104EF000C4F20200102113E041F20000C4F20200EB
:104F000040210DE041F20000C4F20200A0F5406033
:104F100005E041F20000C4F20200A0F5805001213A
:104F2000FFF740FAB0FA80F0400980BD40F2002C53
:104F3000C2F2000CBCF80C304BB1DCF8081000BF1A
:104F40000A8982420FD0013B01F12401F8D10CF112
:104F5000140100BF0968002904BF002070478A8936
:104F60008242F7D104310846704700002DE9F04134
:104F700004468069002800F0BA80DDE906861D46F7
:104F80008A4206D0002AA56053D0A17841F00201E0
:104F9000A170002A4DD0A178C90757D1A168028815
:104FA000691A9142C0F2A380E18A69B3216900893C
:104FB000691A814228DB40F20027C2F20007AEB92D
:104FC000B86B98B1796B691A81420FD2788EFFF76E
:104FD000ADFFB8F1000F09D440B14FEA581150F8B5
:104FE000210008F01F01C840C0070BD1E07840073E
:104FF00008D5012E02D120887D637886BA692046C3
:10500000022190470020E0820020A082A078E17871
:1050100040F00100C907E560A07007D040F2002011
:10502000C2F2000082692046002190476560BDE819
:10503000F081A178CA075CD1E28A002A00F0A4803E
:1050400021690089691A814226DA50E0A069418904
:10505000D9B1E268AB1A8B4217DB40F20027C2F2EB
:10506000000700BF5018E060A08AE178013009070E
:10507000A08203D5BA69204603219047A0694189DF
:1050800019B1E268AB1A8B42ECDAE18A79B3616854
:10509000C088691A81422ADD40F20027C2F2000767
:1050A000AEB9B86B98B1796B691A81420FD2788E1C
:1050B000FFF73CFFB8F1000F09D440B14FEA581197
:1050C00050F8210008F01F01C840C0070BD1E0785C
:1050D000400708D5012E02D120887D637886BA6901
:1050E0002046022190470020E082BDE8F081BDE823
:1050F000F081A2684088AA1A8242B8BFBDE8F08158
:10510000E07801F0FE018007A17007D540F2002091
:10511000C2F200008269204601219047A2696168BD
:105120009088691A814202DBD288914233DD814244
:1051300028DAE08A30B340F20027C2F20007AEB9A5
:10514000B86B98B1796B691A81420FD2788EFFF7EC
:10515000EDFEB8F1000F09D440B14FEA581150F8F4
:10516000210008F01F01C840C0070BD1E0784007BC
:1051700008D5012E02D120887D637886BA69204641
:1051800002219047002009E0880744BF01F0FC009D
:10519000A070BDE8F081E08A25610130E082E08AFC
:1051A00060B3A1698989884228D140F20027C2F200
:1051B0000007AEB9B86B98B1796B691A81420FD20A
:1051C000788EFFF7B3FEB8F1000F09D440B14FEA73
:1051D000581150F8210008F01F01C840C0070BD13A
:1051E000E078400708D5012E02D120887D637886BB
:1051F000BA692046022190470020E0826560BDE840
:10520000F0810000022945D383698B4242D92DE900
:10521000F04381B00378032B4ED0022B3CD0012BFE
:1052200056D11546026A01EB51070E4602EB572193
:105230000446FFF7F3FA014620460A46002964D1E6
:10524000394600F130096FF35F215FEAC6782A46DC
:1052500006D019F801202B4602F00F0265F30B125D
:1052600009F80120026A01370121017102EB57217F
:10527000FFF7D4FA0246002846D1B8F1000F6FF3C9
:105280005F273ED119F80700C5F3032100F0F000B5
:10529000084437E0022070471446026A0E4602EBCB
:1052A00011210546FFF7BAFA024678B9F1B205EBCB
:1052B000410128460C8628E01446026A0E4602EB9D
:1052C000D1110546FFF7AAFA024618B128461CE09C
:1052D00002221AE006F07F0105EB810191F83330DC
:1052E000270A03F0F00344EA0363284681F831708B
:1052F000270C1B0E81F8304081F8327081F8333072
:1053000003E0280909F80700204601210171104631
:1053100001B0BDE8F083000010B542F63442C4F29B
:10532000010200BF116811F0450FFBD0CA0764D11C
:10533000490767D4044602F03BF9A0421CBF08208D
:1053400010BD40F2FF70C0F2C00002F0CBF90020A7
:1053500002F010FA01464EF20800CFF6F950014271
:1053600055D000294FF0000048BF10BDB0EB917F31
:105370001CBF012010BDB0EB517F1CBF022010BD2F
:10538000B0EB117F1CBF032010BDB0EBD16F1CBF71
:10539000042010BDB0EB916F1CBF052010BDC801EB
:1053A00044BF062010BD080244BF072010BD4802BC
:1053B00044BF082010BD880244BF092010BDC802A8
:1053C00044BF0A2010BD080344BF0B2010BDC80312
:1053D00044BF0C2010BD080444BF0D2010BD48047C
:1053E00044BF0E2010BD880444BF0F2010BD080725
:1053F0004FF0100058BF1C2010BD012002F072F9C0
:10540000112010BD042002F06DF9132010BD1D20E5
:1054100010BD000043F67400C4F20200016841F0C0
:10542000807101607047000010B543F60402C4F2B9
:10543000020253680146C3F3810342F20040022B8B
:10544000C0F2F40006D0012B1FD147F64000C0F295
:105450007D101AE0D2F800C013680CF03F0CC3F3C3
:10546000881E13681468C3F30143640247F64004BE
:10547000C0F27D1458BF0446B4FBFCF4022000EBDC
:10548000430004FB0EF3B3FBF0F0536811A4C3F325
:105490000313E35C546849F6220CC4F38224C0F67B
:1054A000000C1CF804E05268032911D820FA03F319
:1054B000DFE801F00D020407184610BD23FA0EF0D4
:1054C00010BDC2F342301CF8000023FA00F010BDFA
:1054D000002010BD000000000000000001020304D5
:1054E0000607080943F6000300F01F018009C4F213
:1054F00002034FF0010CC2580CFA01F11143C150E4
:10550000704700000146B0F5E05F4FF0000029DA77
:105510001C2900F2A680DFE801F00FA4A4A4A4A433
:10552000A4A4A4A4A4A4A4A4A4A477A4A4A4A4A468
:10553000A4A45FA447A48D0043F6000C40F2FF40F2
:10554000C4F2020C002200BFDCF80010013842F166
:105550000003890701D4002BF6D1DCF80000C0F36A
:10556000400070477ED0B1F5E85F00F0958043F2CF
:105570001002914218BF704743F6000C4FF6FE71BF
:10558000C4F2020CC0F20F01002200BFDCF8C00020
:10559000013942F10003800301D4002BF6D1DCF87D
:1055A000C000C0F34040704743F6000C4FF6FE7158
:1055B000C4F2020CC0F20F01002200BFDCF80000B0
:1055C000013942F10003000101D4002BF6D1DCF8CF
:1055D0000000C0F3C060704743F6000C4FF6FE7148
:1055E000C4F2020CC0F20F01002200BFDCF8000080
:1055F000013942F10003800101D4002BF6D1DCF81F
:105600000000C0F34060704743F6000C4FF6FE7098
:10561000C4F2020C002200BFDCF80010013842F195
:105620000003890301D4002BF6D1DCF80000C0F39D
:105630004040704743F6000C4FF6FE71C4F2020C76
:10564000C0F20F01002200BFDCF80000013942F176
:105650000003800001D4002BF6D1DCF80000C0F379
:10566000407070474FF6FE7143F6000CC0F20F0118
:10567000C4F2020C01F17F61002200BFDCF870006F
:10568000013942F10003800701D4002BF6D1DCF888
:105690007000C0F34000704743F6000C4FF6FE71F7
:1056A000C4F2020CC0F20F01002200BFDCF874004B
:1056B000013942F10003800701D4002BF6D1DCF858
:1056C0007400C0F34000704743F6000300F01F0170
:1056D0008009C4F202034FF0010CC2580CFA01F128
:1056E0001143C1507047000043F6000300F01F0152
:1056F0008009C4F202034FF0010CC2580CFA01F108
:1057000022EA0101C150704743F6000300F01F0177
:105710008009C4F202034FF0010CC2580CFA01F1E7
:105720001143C1507047000043F67001C4F20201FA
:105730000A6822F4407210430860704780B542F650
:10574000000CC4F2000CDCF800E0DCF80430DCF8FB
:1057500010101A0CDCF808C00270C3F30422427067
:1057600003F03F028270C3F34232C270CEF30542AF
:105770000271CEF3062242710EF07F028271C1F3F4
:1057800006426FF3DF31028141810EF480010CF09B
:105790004002C0E9031280BD2DE9F04382B042F619
:1057A0000C02C4F20002CA2190F8008090F801E0D7
:1057B00090F802C090F80390C5680379477986791C
:1057C0009161532191614FF4804100911168490624
:1057D00010D4116841F08001116000BF1168009C75
:1057E000013C009402D011F04004F7D0C1F38011C5
:1057F00019B951E0012100294ED003F03F0145EADB
:10580000014107F07F0341EA032106F07F031943BA
:105810004FEA084369F34F330EF01F0743EA0723AB
:105820000CF03F073B44478906896FF3DF3766F387
:105830001647576042F80C1C42F8083C52F8041C0A
:1058400021F0400142F8041C006952F8041C08438E
:1058500042F8040C106820F0800010604FF4004003
:10586000019052F8040C800615D4CA209061532090
:105870009061106820F02000106000BF106801994E
:105880000139019102D010F02001F7D0C0F340118E
:10589000FF20906100E00121FF230846936102B0E0
:1058A000BDE8F08381B042F60C014FF40040C4F231
:1058B0000001009051F8040C800642BF012001B0A5
:1058C0007047CA20886153208861086820F0200052
:1058D000086000BF0868009A013A009202D010F0F8
:1058E0002002F7D0FF22C0F340108A6101B0704758
:1058F00010B582B040F23874C2F200042046FFF7BF
:105900001DFF237994F805C0A47904A20020032187
:10591000CDE900C4FFF764F802B010BD25302E3287
:10592000783A25302E32783A25302E327800000031
:1059300040F2AD70C2F20000062101707047000015
:1059400070B540F2AD74C2F200042078002808BFA0
:1059500070BD40F2E400C2F2000000F1080500262C
:1059600006E000BF20780136864205F10C050DD215
:10597000FEF78AFCFFF7DEF855E901121144814277
:10598000F0D855F8081C28608847EBE770BD000088
:105990002DE9F04381B004460020002C009000F077
:1059A000A2800D4640F22C111646C2F200011D22C3
:1059B0000A7040F2B471C2F2000140F2B0770860A0
:1059C000C2F2000700210022386001F01FFE002013
:1059D000002101F041FE01F071FE01F05BFE0020AC
:1059E00001F0C8FE800117D440F2F810C2F20000A6
:1059F00000780022022804BF4FF400766D0A711E61
:105A000088B2B2EBD02F4FF0190008BF11EA06019F
:105A100006D001B0BDE8F083062001B0BDE8F083F8
:105A2000012E02D14FF000080BE00020314600BFEC
:105A3000C1F34E01012900F10100F9D100015FFA23
:105A400080F810203146402201F0BAFD00204FF0CE
:105A5000000901F0AFFE01F0CFFD1020FFF75CFC64
:105A60001D28D6D140F2AC70C2F2000080F8009040
:105A70004FF0FF30314642463E6001F0C7FD022044
:105A8000002101F0E9FD01F023FE1120294640220A
:105A900001F096FD002001F08DFE01F0ADFD11201A
:105AA000FFF73AFC05461D2879D140F23010C2F2CA
:105AB0000000006810B3012815D140F22A6001F0FF
:105AC00017FEA0B94FF4004001F012FE0028F4D0F8
:105AD000002600BF01F0BAFD44F826000136082E6A
